{
  "_format": "hh-sol-artifact-1",
  "contractName": "Raffle",
  "sourceName": "contracts/Raffle.sol",
  "abi": [
    {
      "inputs": [
        {
          "internalType": "address",
          "name": "vrfCoordinatorV2",
          "type": "address"
        },
        {
          "internalType": "uint64",
          "name": "subscriptionId",
          "type": "uint64"
        },
        {
          "internalType": "bytes32",
          "name": "gasLane",
          "type": "bytes32"
        },
        {
          "internalType": "uint256",
          "name": "interval",
          "type": "uint256"
        },
        {
          "internalType": "uint256",
          "name": "entranceFee",
          "type": "uint256"
        },
        {
          "internalType": "uint32",
          "name": "callbackGasLimit",
          "type": "uint32"
        }
      ],
      "stateMutability": "nonpayable",
      "type": "constructor"
    },
    {
      "inputs": [
        {
          "internalType": "address",
          "name": "have",
          "type": "address"
        },
        {
          "internalType": "address",
          "name": "want",
          "type": "address"
        }
      ],
      "name": "OnlyCoordinatorCanFulfill",
      "type": "error"
    },
    {
      "inputs": [
        {
          "internalType": "uint256",
          "name": "correntBalance",
          "type": "uint256"
        },
        {
          "internalType": "uint256",
          "name": "numPlayers",
          "type": "uint256"
        },
        {
          "internalType": "uint256",
          "name": "raffleState",
          "type": "uint256"
        }
      ],
      "name": "Raffle_UpkeepNotNeeded",
      "type": "error"
    },
    {
      "inputs": [],
      "name": "Raffle__NotEnoughETHEntered",
      "type": "error"
    },
    {
      "inputs": [],
      "name": "Raffle__NotOpen",
      "type": "error"
    },
    {
      "inputs": [],
      "name": "transferFailed",
      "type": "error"
    },
    {
      "anonymous": false,
      "inputs": [
        {
          "indexed": true,
          "internalType": "address",
          "name": "player",
          "type": "address"
        }
      ],
      "name": "RaffleEnter",
      "type": "event"
    },
    {
      "anonymous": false,
      "inputs": [
        {
          "indexed": true,
          "internalType": "uint256",
          "name": "requestId",
          "type": "uint256"
        }
      ],
      "name": "RequestedRaffleWinner",
      "type": "event"
    },
    {
      "anonymous": false,
      "inputs": [
        {
          "indexed": true,
          "internalType": "address",
          "name": "winner",
          "type": "address"
        }
      ],
      "name": "WinnerPicked",
      "type": "event"
    },
    {
      "inputs": [
        {
          "internalType": "bytes",
          "name": "",
          "type": "bytes"
        }
      ],
      "name": "checkUpkeep",
      "outputs": [
        {
          "internalType": "bool",
          "name": "upkeepNeeded",
          "type": "bool"
        },
        {
          "internalType": "bytes",
          "name": "",
          "type": "bytes"
        }
      ],
      "stateMutability": "view",
      "type": "function"
    },
    {
      "inputs": [],
      "name": "enterRaffle",
      "outputs": [],
      "stateMutability": "payable",
      "type": "function"
    },
    {
      "inputs": [],
      "name": "getEntranceFee",
      "outputs": [
        {
          "internalType": "uint256",
          "name": "",
          "type": "uint256"
        }
      ],
      "stateMutability": "view",
      "type": "function"
    },
    {
      "inputs": [],
      "name": "getInterval",
      "outputs": [
        {
          "internalType": "uint256",
          "name": "",
          "type": "uint256"
        }
      ],
      "stateMutability": "view",
      "type": "function"
    },
    {
      "inputs": [],
      "name": "getLastTimeStamp",
      "outputs": [
        {
          "internalType": "uint256",
          "name": "",
          "type": "uint256"
        }
      ],
      "stateMutability": "view",
      "type": "function"
    },
    {
      "inputs": [],
      "name": "getNumWords",
      "outputs": [
        {
          "internalType": "uint256",
          "name": "",
          "type": "uint256"
        }
      ],
      "stateMutability": "pure",
      "type": "function"
    },
    {
      "inputs": [],
      "name": "getNumberOfPlayers",
      "outputs": [
        {
          "internalType": "uint256",
          "name": "",
          "type": "uint256"
        }
      ],
      "stateMutability": "view",
      "type": "function"
    },
    {
      "inputs": [
        {
          "internalType": "uint256",
          "name": "index",
          "type": "uint256"
        }
      ],
      "name": "getPlayer",
      "outputs": [
        {
          "internalType": "address",
          "name": "",
          "type": "address"
        }
      ],
      "stateMutability": "view",
      "type": "function"
    },
    {
      "inputs": [],
      "name": "getRaffleState",
      "outputs": [
        {
          "internalType": "enum Raffle.RaffleStates",
          "name": "",
          "type": "uint8"
        }
      ],
      "stateMutability": "view",
      "type": "function"
    },
    {
      "inputs": [],
      "name": "getRecentWinner",
      "outputs": [
        {
          "internalType": "address",
          "name": "",
          "type": "address"
        }
      ],
      "stateMutability": "view",
      "type": "function"
    },
    {
      "inputs": [],
      "name": "getRequestConfirmations",
      "outputs": [
        {
          "internalType": "uint256",
          "name": "",
          "type": "uint256"
        }
      ],
      "stateMutability": "pure",
      "type": "function"
    },
    {
      "inputs": [
        {
          "internalType": "bytes",
          "name": "",
          "type": "bytes"
        }
      ],
      "name": "performUpkeep",
      "outputs": [],
      "stateMutability": "nonpayable",
      "type": "function"
    },
    {
      "inputs": [
        {
          "internalType": "uint256",
          "name": "requestId",
          "type": "uint256"
        },
        {
          "internalType": "uint256[]",
          "name": "randomWords",
          "type": "uint256[]"
        }
      ],
      "name": "rawFulfillRandomWords",
      "outputs": [],
      "stateMutability": "nonpayable",
      "type": "function"
    },
    {
      "inputs": [],
      "name": "recentWinner",
      "outputs": [
        {
          "internalType": "address",
          "name": "",
          "type": "address"
        }
      ],
      "stateMutability": "view",
      "type": "function"
    }
  ],
  "bytecode": "0x6101606040523480156200001257600080fd5b5060405162001801380380620018018339818101604052810190620000389190620001ad565b858073ffffffffffffffffffffffffffffffffffffffff1660808173ffffffffffffffffffffffffffffffffffffffff1660601b81525050508160a081815250508573ffffffffffffffffffffffffffffffffffffffff1660c08173ffffffffffffffffffffffffffffffffffffffff1660601b815250508360e081815250508467ffffffffffffffff166101008167ffffffffffffffff1660c01b815250508063ffffffff166101208163ffffffff1660e01b815250506000600260146101000a81548160ff02191690836001811115620001195762000118620002b5565b5b0217905550426001819055508261014081815250505050505050506200036b565b6000815190506200014b81620002e9565b92915050565b600081519050620001628162000303565b92915050565b60008151905062000179816200031d565b92915050565b600081519050620001908162000337565b92915050565b600081519050620001a78162000351565b92915050565b60008060008060008060c08789031215620001cd57620001cc620002e4565b5b6000620001dd89828a016200013a565b9650506020620001f089828a0162000196565b95505060406200020389828a0162000151565b94505060606200021689828a0162000168565b93505060806200022989828a0162000168565b92505060a06200023c89828a016200017f565b9150509295509295509295565b6000620002568262000267565b9050919050565b6000819050919050565b600073ffffffffffffffffffffffffffffffffffffffff82169050919050565b6000819050919050565b600063ffffffff82169050919050565b600067ffffffffffffffff82169050919050565b7f4e487b7100000000000000000000000000000000000000000000000000000000600052602160045260246000fd5b600080fd5b620002f48162000249565b81146200030057600080fd5b50565b6200030e816200025d565b81146200031a57600080fd5b50565b620003288162000287565b81146200033457600080fd5b50565b620003428162000291565b81146200034e57600080fd5b50565b6200035c81620002a1565b81146200036857600080fd5b50565b60805160601c60a05160c05160601c60e0516101005160c01c6101205160e01c6101405161141a620003e76000396000818161085c01526108ca015260006106e2015260006106bf0152600061069e01526000610662015260008181610340015261043d01526000818161037d01526103d1015261141a6000f3fe6080604052600436106100dd5760003560e01c806353a2c19a1161007f57806391ad27b41161005957806391ad27b41461027e578063c1c244e8146102a9578063e55ae4e8146102d4578063fd6673f514610311576100dd565b806353a2c19a146101ea5780635f1b0fd8146102155780636e04ff0d14610240576100dd565b80632cfcc539116100bb5780632cfcc539146101615780634585e33b1461016b578063473f1ddc146101945780634f8c70cf146101bf576100dd565b806309bc33a7146100e2578063115cbaf51461010d5780631fe543e314610138575b600080fd5b3480156100ee57600080fd5b506100f761033c565b6040516101049190611025565b60405180910390f35b34801561011957600080fd5b50610122610364565b60405161012f919061100a565b60405180910390f35b34801561014457600080fd5b5061015f600480360381019061015a9190610dfe565b61037b565b005b61016961043b565b005b34801561017757600080fd5b50610192600480360381019061018d9190610d5b565b6105aa565b005b3480156101a057600080fd5b506101a96107a9565b6040516101b69190610f43565b60405180910390f35b3480156101cb57600080fd5b506101d46107d3565b6040516101e19190610f43565b60405180910390f35b3480156101f657600080fd5b506101ff6107fd565b60405161020c9190611025565b60405180910390f35b34801561022157600080fd5b5061022a61080c565b6040516102379190611025565b60405180910390f35b34801561024c57600080fd5b5061026760048036038101906102629190610d5b565b610819565b604051610275929190610f87565b60405180910390f35b34801561028a57600080fd5b506102936108c6565b6040516102a09190611025565b60405180910390f35b3480156102b557600080fd5b506102be6108ee565b6040516102cb9190611025565b60405180910390f35b3480156102e057600080fd5b506102fb60048036038101906102f69190610da4565b6108f8565b6040516103089190610f43565b60405180910390f35b34801561031d57600080fd5b5061032661093f565b6040516103339190611025565b60405180910390f35b60007f0000000000000000000000000000000000000000000000000000000000000000905090565b6000600260149054906101000a900460ff16905090565b7f000000000000000000000000000000000000000000000000000000000000000073ffffffffffffffffffffffffffffffffffffffff163373ffffffffffffffffffffffffffffffffffffffff161461042d57337f00000000000000000000000000000000000000000000000000000000000000006040517f1cf993f4000000000000000000000000000000000000000000000000000000008152600401610424929190610f5e565b60405180910390fd5b610437828261094b565b5050565b7f0000000000000000000000000000000000000000000000000000000000000000341015610495576040517fbd4e069500000000000000000000000000000000000000000000000000000000815260040160405180910390fd5b600060018111156104a9576104a86112ff565b5b600260149054906101000a900460ff1660018111156104cb576104ca6112ff565b5b14610502576040517f1425571c00000000000000000000000000000000000000000000000000000000815260040160405180910390fd5b6000339080600181540180825580915050600190039060005260206000200160009091909190916101000a81548173ffffffffffffffffffffffffffffffffffffffff021916908373ffffffffffffffffffffffffffffffffffffffff1602179055503373ffffffffffffffffffffffffffffffffffffffff167f0805e1d667bddb8a95f0f09880cf94f403fb596ce79928d9f29b74203ba284d460405160405180910390a2565b60006105c460405180602001604052806000815250610819565b509050806106335747600080549050600260149054906101000a900460ff1660018111156105f5576105f46112ff565b5b6040517fe059521b00000000000000000000000000000000000000000000000000000000815260040161062a93929190611040565b60405180910390fd5b6001600260146101000a81548160ff02191690836001811115610659576106586112ff565b5b021790555060007f000000000000000000000000000000000000000000000000000000000000000073ffffffffffffffffffffffffffffffffffffffff16635d3b1d307f00000000000000000000000000000000000000000000000000000000000000007f000000000000000000000000000000000000000000000000000000000000000060037f000000000000000000000000000000000000000000000000000000000000000060016040518663ffffffff1660e01b8152600401610723959493929190610fb7565b602060405180830381600087803b15801561073d57600080fd5b505af1158015610751573d6000803e3d6000fd5b505050506040513d601f19601f820116820180604052508101906107759190610dd1565b9050807fcd6e45c8998311cab7e9d4385596cac867e20a0587194b954fa3a731c93ce78b60405160405180910390a2505050565b6000600260009054906101000a900473ffffffffffffffffffffffffffffffffffffffff16905090565b6000600260009054906101000a900473ffffffffffffffffffffffffffffffffffffffff16905090565b6000600163ffffffff16905090565b6000600361ffff16905090565b600060606000600260149054906101000a900460ff166001811115610841576108406112ff565b5b60006001811115610855576108546112ff565b5b14905060007f0000000000000000000000000000000000000000000000000000000000000000600154426108899190611120565b119050600080600080549050119050600080471190508380156108a95750825b80156108b25750815b80156108bb5750805b955050505050915091565b60007f0000000000000000000000000000000000000000000000000000000000000000905090565b6000600154905090565b600080828154811061090d5761090c61132e565b5b9060005260206000200160009054906101000a900473ffffffffffffffffffffffffffffffffffffffff169050919050565b60008080549050905090565b60008080549050826000815181106109665761096561132e565b5b60200260200101516109789190611270565b9050600080828154811061098f5761098e61132e565b5b9060005260206000200160009054906101000a900473ffffffffffffffffffffffffffffffffffffffff16905080600260006101000a81548173ffffffffffffffffffffffffffffffffffffffff021916908373ffffffffffffffffffffffffffffffffffffffff1602179055506000600260146101000a81548160ff02191690836001811115610a2357610a226112ff565b5b0217905550600067ffffffffffffffff811115610a4357610a4261135d565b5b604051908082528060200260200182016040528015610a715781602001602082028036833780820191505090505b5060009080519060200190610a87929190610b7c565b504260018190555060008173ffffffffffffffffffffffffffffffffffffffff1647604051610ab590610f2e565b60006040518083038185875af1925050503d8060008114610af2576040519150601f19603f3d011682016040523d82523d6000602084013e610af7565b606091505b5050905080610b32576040517fe465903e00000000000000000000000000000000000000000000000000000000815260040160405180910390fd5b8173ffffffffffffffffffffffffffffffffffffffff167f5b690ec4a06fe979403046eaeea5b3ce38524683c3001f662c8b5a829632f7df60405160405180910390a25050505050565b828054828255906000526020600020908101928215610bf5579160200282015b82811115610bf45782518260006101000a81548173ffffffffffffffffffffffffffffffffffffffff021916908373ffffffffffffffffffffffffffffffffffffffff16021790555091602001919060010190610b9c565b5b509050610c029190610c06565b5090565b5b80821115610c1f576000816000905550600101610c07565b5090565b6000610c36610c318461109c565b611077565b90508083825260208201905082856020860282011115610c5957610c58611391565b5b60005b85811015610c895781610c6f8882610d31565b845260208401935060208301925050600181019050610c5c565b5050509392505050565b6000610ca6610ca1846110c8565b611077565b905082815260208101848484011115610cc257610cc1611396565b5b610ccd8482856111fd565b509392505050565b600082601f830112610cea57610ce961138c565b5b8135610cfa848260208601610c23565b91505092915050565b600082601f830112610d1857610d1761138c565b5b8135610d28848260208601610c93565b91505092915050565b600081359050610d40816113cd565b92915050565b600081519050610d55816113cd565b92915050565b600060208284031215610d7157610d706113a0565b5b600082013567ffffffffffffffff811115610d8f57610d8e61139b565b5b610d9b84828501610d03565b91505092915050565b600060208284031215610dba57610db96113a0565b5b6000610dc884828501610d31565b91505092915050565b600060208284031215610de757610de66113a0565b5b6000610df584828501610d46565b91505092915050565b60008060408385031215610e1557610e146113a0565b5b6000610e2385828601610d31565b925050602083013567ffffffffffffffff811115610e4457610e4361139b565b5b610e5085828601610cd5565b9150509250929050565b610e6381611154565b82525050565b610e7281611166565b82525050565b610e8181611172565b82525050565b6000610e92826110f9565b610e9c8185611104565b9350610eac81856020860161120c565b610eb5816113a5565b840191505092915050565b610ec9816111eb565b82525050565b6000610edc600083611115565b9150610ee7826113b6565b600082019050919050565b610efb8161118f565b82525050565b610f0a816111bd565b82525050565b610f19816111c7565b82525050565b610f28816111d7565b82525050565b6000610f3982610ecf565b9150819050919050565b6000602082019050610f586000830184610e5a565b92915050565b6000604082019050610f736000830185610e5a565b610f806020830184610e5a565b9392505050565b6000604082019050610f9c6000830185610e69565b8181036020830152610fae8184610e87565b90509392505050565b600060a082019050610fcc6000830188610e78565b610fd96020830187610f1f565b610fe66040830186610ef2565b610ff36060830185610f10565b6110006080830184610f10565b9695505050505050565b600060208201905061101f6000830184610ec0565b92915050565b600060208201905061103a6000830184610f01565b92915050565b60006060820190506110556000830186610f01565b6110626020830185610f01565b61106f6040830184610f01565b949350505050565b6000611081611092565b905061108d828261123f565b919050565b6000604051905090565b600067ffffffffffffffff8211156110b7576110b661135d565b5b602082029050602081019050919050565b600067ffffffffffffffff8211156110e3576110e261135d565b5b6110ec826113a5565b9050602081019050919050565b600081519050919050565b600082825260208201905092915050565b600081905092915050565b600061112b826111bd565b9150611136836111bd565b925082821015611149576111486112a1565b5b828203905092915050565b600061115f8261119d565b9050919050565b60008115159050919050565b6000819050919050565b600081905061118a826113b9565b919050565b600061ffff82169050919050565b600073ffffffffffffffffffffffffffffffffffffffff82169050919050565b6000819050919050565b600063ffffffff82169050919050565b600067ffffffffffffffff82169050919050565b60006111f68261117c565b9050919050565b82818337600083830152505050565b60005b8381101561122a57808201518184015260208101905061120f565b83811115611239576000848401525b50505050565b611248826113a5565b810181811067ffffffffffffffff821117156112675761126661135d565b5b80604052505050565b600061127b826111bd565b9150611286836111bd565b925082611296576112956112d0565b5b828206905092915050565b7f4e487b7100000000000000000000000000000000000000000000000000000000600052601160045260246000fd5b7f4e487b7100000000000000000000000000000000000000000000000000000000600052601260045260246000fd5b7f4e487b7100000000000000000000000000000000000000000000000000000000600052602160045260246000fd5b7f4e487b7100000000000000000000000000000000000000000000000000000000600052603260045260246000fd5b7f4e487b7100000000000000000000000000000000000000000000000000000000600052604160045260246000fd5b600080fd5b600080fd5b600080fd5b600080fd5b600080fd5b6000601f19601f8301169050919050565b50565b600281106113ca576113c96112ff565b5b50565b6113d6816111bd565b81146113e157600080fd5b5056fea264697066735822122035ed49eb66cea5b5e50db8aa8414a1581da3a1c22a8b7231807ef887577aaab564736f6c63430008070033",
  "linkReferences": {},
  "deployedLinkReferences": {}
}