{
  "_format": "hh-sol-artifact-1",
  "contractName": "Raffle",
  "sourceName": "contracts/Raffle.sol",
  "abi": [
    {
      "inputs": [
        {
          "internalType": "address",
          "name": "vrfCoordinatorV2",
          "type": "address"
        },
        {
          "internalType": "uint256",
          "name": "entranceFee",
          "type": "uint256"
        },
        {
          "internalType": "bytes32",
          "name": "gasLane",
          "type": "bytes32"
        },
        {
          "internalType": "uint64",
          "name": "subscriptionId",
          "type": "uint64"
        },
        {
          "internalType": "uint32",
          "name": "callbackGasLimit",
          "type": "uint32"
        },
        {
          "internalType": "uint256",
          "name": "interval",
          "type": "uint256"
        }
      ],
      "stateMutability": "nonpayable",
      "type": "constructor"
    },
    {
      "inputs": [
        {
          "internalType": "address",
          "name": "have",
          "type": "address"
        },
        {
          "internalType": "address",
          "name": "want",
          "type": "address"
        }
      ],
      "name": "OnlyCoordinatorCanFulfill",
      "type": "error"
    },
    {
      "inputs": [
        {
          "internalType": "uint256",
          "name": "correntBalance",
          "type": "uint256"
        },
        {
          "internalType": "uint256",
          "name": "numPlayers",
          "type": "uint256"
        },
        {
          "internalType": "uint256",
          "name": "raffleState",
          "type": "uint256"
        }
      ],
      "name": "Raffle_UpkeepNotNeeded",
      "type": "error"
    },
    {
      "inputs": [],
      "name": "Raffle__NotEnoughETHEntered",
      "type": "error"
    },
    {
      "inputs": [],
      "name": "Raffle__NotOpen",
      "type": "error"
    },
    {
      "inputs": [],
      "name": "transferFailed",
      "type": "error"
    },
    {
      "anonymous": false,
      "inputs": [
        {
          "indexed": true,
          "internalType": "address",
          "name": "player",
          "type": "address"
        }
      ],
      "name": "RaffleEnter",
      "type": "event"
    },
    {
      "anonymous": false,
      "inputs": [
        {
          "indexed": true,
          "internalType": "uint256",
          "name": "requestId",
          "type": "uint256"
        }
      ],
      "name": "RequestedRaffleWinner",
      "type": "event"
    },
    {
      "anonymous": false,
      "inputs": [
        {
          "indexed": true,
          "internalType": "address",
          "name": "winner",
          "type": "address"
        }
      ],
      "name": "WinnerPicked",
      "type": "event"
    },
    {
      "inputs": [
        {
          "internalType": "bytes",
          "name": "",
          "type": "bytes"
        }
      ],
      "name": "checkUpkeep",
      "outputs": [
        {
          "internalType": "bool",
          "name": "upkeepNeeded",
          "type": "bool"
        },
        {
          "internalType": "bytes",
          "name": "",
          "type": "bytes"
        }
      ],
      "stateMutability": "view",
      "type": "function"
    },
    {
      "inputs": [],
      "name": "enterRaffle",
      "outputs": [],
      "stateMutability": "payable",
      "type": "function"
    },
    {
      "inputs": [],
      "name": "getEntranceFee",
      "outputs": [
        {
          "internalType": "uint256",
          "name": "",
          "type": "uint256"
        }
      ],
      "stateMutability": "view",
      "type": "function"
    },
    {
      "inputs": [],
      "name": "getInterval",
      "outputs": [
        {
          "internalType": "uint256",
          "name": "",
          "type": "uint256"
        }
      ],
      "stateMutability": "view",
      "type": "function"
    },
    {
      "inputs": [],
      "name": "getLastTimeStamp",
      "outputs": [
        {
          "internalType": "uint256",
          "name": "",
          "type": "uint256"
        }
      ],
      "stateMutability": "view",
      "type": "function"
    },
    {
      "inputs": [],
      "name": "getNumWords",
      "outputs": [
        {
          "internalType": "uint256",
          "name": "",
          "type": "uint256"
        }
      ],
      "stateMutability": "pure",
      "type": "function"
    },
    {
      "inputs": [
        {
          "internalType": "uint256",
          "name": "index",
          "type": "uint256"
        }
      ],
      "name": "getPlayer",
      "outputs": [
        {
          "internalType": "address",
          "name": "",
          "type": "address"
        }
      ],
      "stateMutability": "view",
      "type": "function"
    },
    {
      "inputs": [
        {
          "internalType": "uint256",
          "name": "index",
          "type": "uint256"
        }
      ],
      "name": "getPlayers",
      "outputs": [
        {
          "internalType": "address",
          "name": "",
          "type": "address"
        }
      ],
      "stateMutability": "view",
      "type": "function"
    },
    {
      "inputs": [],
      "name": "getRaffleState",
      "outputs": [
        {
          "internalType": "enum Raffle.RaffleStates",
          "name": "",
          "type": "uint8"
        }
      ],
      "stateMutability": "view",
      "type": "function"
    },
    {
      "inputs": [],
      "name": "getRecentWinner",
      "outputs": [
        {
          "internalType": "address",
          "name": "",
          "type": "address"
        }
      ],
      "stateMutability": "view",
      "type": "function"
    },
    {
      "inputs": [],
      "name": "getRequestConfirmations",
      "outputs": [
        {
          "internalType": "uint256",
          "name": "",
          "type": "uint256"
        }
      ],
      "stateMutability": "pure",
      "type": "function"
    },
    {
      "inputs": [
        {
          "internalType": "bytes",
          "name": "",
          "type": "bytes"
        }
      ],
      "name": "performUpkeep",
      "outputs": [],
      "stateMutability": "nonpayable",
      "type": "function"
    },
    {
      "inputs": [
        {
          "internalType": "uint256",
          "name": "requestId",
          "type": "uint256"
        },
        {
          "internalType": "uint256[]",
          "name": "randomWords",
          "type": "uint256[]"
        }
      ],
      "name": "rawFulfillRandomWords",
      "outputs": [],
      "stateMutability": "nonpayable",
      "type": "function"
    },
    {
      "inputs": [],
      "name": "recentWinner",
      "outputs": [
        {
          "internalType": "address",
          "name": "",
          "type": "address"
        }
      ],
      "stateMutability": "view",
      "type": "function"
    }
  ],
  "bytecode": "0x6101606040523480156200001257600080fd5b506040516200184e3803806200184e8339818101604052810190620000389190620001ad565b858073ffffffffffffffffffffffffffffffffffffffff1660808173ffffffffffffffffffffffffffffffffffffffff1660601b81525050508460a081815250508573ffffffffffffffffffffffffffffffffffffffff1660c08173ffffffffffffffffffffffffffffffffffffffff1660601b815250508360e081815250508267ffffffffffffffff166101008167ffffffffffffffff1660c01b815250508163ffffffff166101208163ffffffff1660e01b815250506000600260146101000a81548160ff02191690836001811115620001195762000118620002b5565b5b0217905550426001819055508061014081815250505050505050506200036b565b6000815190506200014b81620002e9565b92915050565b600081519050620001628162000303565b92915050565b60008151905062000179816200031d565b92915050565b600081519050620001908162000337565b92915050565b600081519050620001a78162000351565b92915050565b60008060008060008060c08789031215620001cd57620001cc620002e4565b5b6000620001dd89828a016200013a565b9650506020620001f089828a0162000168565b95505060406200020389828a0162000151565b94505060606200021689828a0162000196565b93505060806200022989828a016200017f565b92505060a06200023c89828a0162000168565b9150509295509295509295565b6000620002568262000267565b9050919050565b6000819050919050565b600073ffffffffffffffffffffffffffffffffffffffff82169050919050565b6000819050919050565b600063ffffffff82169050919050565b600067ffffffffffffffff82169050919050565b7f4e487b7100000000000000000000000000000000000000000000000000000000600052602160045260246000fd5b600080fd5b620002f48162000249565b81146200030057600080fd5b50565b6200030e816200025d565b81146200031a57600080fd5b50565b620003288162000287565b81146200033457600080fd5b50565b620003428162000291565b81146200034e57600080fd5b50565b6200035c81620002a1565b81146200036857600080fd5b50565b60805160601c60a05160c05160601c60e0516101005160c01c6101205160e01c61014051611467620003e7600039600081816108b50152610923015260006106f4015260006106d1015260006106b001526000610674015260008181610352015261044f01526000818161038f01526103e301526114676000f3fe6080604052600436106100dd5760003560e01c80634f8c70cf1161007f5780636e04ff0d116100595780636e04ff0d1461027d57806391ad27b4146102bb578063c1c244e8146102e6578063e55ae4e814610311576100dd565b80634f8c70cf146101fc57806353a2c19a146102275780635f1b0fd814610252576100dd565b80632cfcc539116100bb5780632cfcc539146101615780634585e33b1461016b578063460e204914610194578063473f1ddc146101d1576100dd565b806309bc33a7146100e2578063115cbaf51461010d5780631fe543e314610138575b600080fd5b3480156100ee57600080fd5b506100f761034e565b6040516101049190611072565b60405180910390f35b34801561011957600080fd5b50610122610376565b60405161012f9190611057565b60405180910390f35b34801561014457600080fd5b5061015f600480360381019061015a9190610e4b565b61038d565b005b61016961044d565b005b34801561017757600080fd5b50610192600480360381019061018d9190610da8565b6105bc565b005b3480156101a057600080fd5b506101bb60048036038101906101b69190610df1565b6107bb565b6040516101c89190610f90565b60405180910390f35b3480156101dd57600080fd5b506101e6610802565b6040516101f39190610f90565b60405180910390f35b34801561020857600080fd5b5061021161082c565b60405161021e9190610f90565b60405180910390f35b34801561023357600080fd5b5061023c610856565b6040516102499190611072565b60405180910390f35b34801561025e57600080fd5b50610267610865565b6040516102749190611072565b60405180910390f35b34801561028957600080fd5b506102a4600480360381019061029f9190610da8565b610872565b6040516102b2929190610fd4565b60405180910390f35b3480156102c757600080fd5b506102d061091f565b6040516102dd9190611072565b60405180910390f35b3480156102f257600080fd5b506102fb610947565b6040516103089190611072565b60405180910390f35b34801561031d57600080fd5b5061033860048036038101906103339190610df1565b610951565b6040516103459190610f90565b60405180910390f35b60007f0000000000000000000000000000000000000000000000000000000000000000905090565b6000600260149054906101000a900460ff16905090565b7f000000000000000000000000000000000000000000000000000000000000000073ffffffffffffffffffffffffffffffffffffffff163373ffffffffffffffffffffffffffffffffffffffff161461043f57337f00000000000000000000000000000000000000000000000000000000000000006040517f1cf993f4000000000000000000000000000000000000000000000000000000008152600401610436929190610fab565b60405180910390fd5b6104498282610998565b5050565b7f00000000000000000000000000000000000000000000000000000000000000003410156104a7576040517fbd4e069500000000000000000000000000000000000000000000000000000000815260040160405180910390fd5b600060018111156104bb576104ba61134c565b5b600260149054906101000a900460ff1660018111156104dd576104dc61134c565b5b14610514576040517f1425571c00000000000000000000000000000000000000000000000000000000815260040160405180910390fd5b6000339080600181540180825580915050600190039060005260206000200160009091909190916101000a81548173ffffffffffffffffffffffffffffffffffffffff021916908373ffffffffffffffffffffffffffffffffffffffff1602179055503373ffffffffffffffffffffffffffffffffffffffff167f0805e1d667bddb8a95f0f09880cf94f403fb596ce79928d9f29b74203ba284d460405160405180910390a2565b60006105d660405180602001604052806000815250610872565b509050806106455747600080549050600260149054906101000a900460ff1660018111156106075761060661134c565b5b6040517fe059521b00000000000000000000000000000000000000000000000000000000815260040161063c9392919061108d565b60405180910390fd5b6001600260146101000a81548160ff0219169083600181111561066b5761066a61134c565b5b021790555060007f000000000000000000000000000000000000000000000000000000000000000073ffffffffffffffffffffffffffffffffffffffff16635d3b1d307f00000000000000000000000000000000000000000000000000000000000000007f000000000000000000000000000000000000000000000000000000000000000060037f000000000000000000000000000000000000000000000000000000000000000060016040518663ffffffff1660e01b8152600401610735959493929190611004565b602060405180830381600087803b15801561074f57600080fd5b505af1158015610763573d6000803e3d6000fd5b505050506040513d601f19601f820116820180604052508101906107879190610e1e565b9050807fcd6e45c8998311cab7e9d4385596cac867e20a0587194b954fa3a731c93ce78b60405160405180910390a2505050565b60008082815481106107d0576107cf61137b565b5b9060005260206000200160009054906101000a900473ffffffffffffffffffffffffffffffffffffffff169050919050565b6000600260009054906101000a900473ffffffffffffffffffffffffffffffffffffffff16905090565b6000600260009054906101000a900473ffffffffffffffffffffffffffffffffffffffff16905090565b6000600163ffffffff16905090565b6000600361ffff16905090565b600060606000600260149054906101000a900460ff16600181111561089a5761089961134c565b5b600060018111156108ae576108ad61134c565b5b14905060007f0000000000000000000000000000000000000000000000000000000000000000600154426108e2919061116d565b119050600080600080549050119050600080471190508380156109025750825b801561090b5750815b80156109145750805b955050505050915091565b60007f0000000000000000000000000000000000000000000000000000000000000000905090565b6000600154905090565b60008082815481106109665761096561137b565b5b9060005260206000200160009054906101000a900473ffffffffffffffffffffffffffffffffffffffff169050919050565b60008080549050826000815181106109b3576109b261137b565b5b60200260200101516109c591906112bd565b905060008082815481106109dc576109db61137b565b5b9060005260206000200160009054906101000a900473ffffffffffffffffffffffffffffffffffffffff16905080600260006101000a81548173ffffffffffffffffffffffffffffffffffffffff021916908373ffffffffffffffffffffffffffffffffffffffff1602179055506000600260146101000a81548160ff02191690836001811115610a7057610a6f61134c565b5b0217905550600067ffffffffffffffff811115610a9057610a8f6113aa565b5b604051908082528060200260200182016040528015610abe5781602001602082028036833780820191505090505b5060009080519060200190610ad4929190610bc9565b504260018190555060008173ffffffffffffffffffffffffffffffffffffffff1647604051610b0290610f7b565b60006040518083038185875af1925050503d8060008114610b3f576040519150601f19603f3d011682016040523d82523d6000602084013e610b44565b606091505b5050905080610b7f576040517fe465903e00000000000000000000000000000000000000000000000000000000815260040160405180910390fd5b8173ffffffffffffffffffffffffffffffffffffffff167f5b690ec4a06fe979403046eaeea5b3ce38524683c3001f662c8b5a829632f7df60405160405180910390a25050505050565b828054828255906000526020600020908101928215610c42579160200282015b82811115610c415782518260006101000a81548173ffffffffffffffffffffffffffffffffffffffff021916908373ffffffffffffffffffffffffffffffffffffffff16021790555091602001919060010190610be9565b5b509050610c4f9190610c53565b5090565b5b80821115610c6c576000816000905550600101610c54565b5090565b6000610c83610c7e846110e9565b6110c4565b90508083825260208201905082856020860282011115610ca657610ca56113de565b5b60005b85811015610cd65781610cbc8882610d7e565b845260208401935060208301925050600181019050610ca9565b5050509392505050565b6000610cf3610cee84611115565b6110c4565b905082815260208101848484011115610d0f57610d0e6113e3565b5b610d1a84828561124a565b509392505050565b600082601f830112610d3757610d366113d9565b5b8135610d47848260208601610c70565b91505092915050565b600082601f830112610d6557610d646113d9565b5b8135610d75848260208601610ce0565b91505092915050565b600081359050610d8d8161141a565b92915050565b600081519050610da28161141a565b92915050565b600060208284031215610dbe57610dbd6113ed565b5b600082013567ffffffffffffffff811115610ddc57610ddb6113e8565b5b610de884828501610d50565b91505092915050565b600060208284031215610e0757610e066113ed565b5b6000610e1584828501610d7e565b91505092915050565b600060208284031215610e3457610e336113ed565b5b6000610e4284828501610d93565b91505092915050565b60008060408385031215610e6257610e616113ed565b5b6000610e7085828601610d7e565b925050602083013567ffffffffffffffff811115610e9157610e906113e8565b5b610e9d85828601610d22565b9150509250929050565b610eb0816111a1565b82525050565b610ebf816111b3565b82525050565b610ece816111bf565b82525050565b6000610edf82611146565b610ee98185611151565b9350610ef9818560208601611259565b610f02816113f2565b840191505092915050565b610f1681611238565b82525050565b6000610f29600083611162565b9150610f3482611403565b600082019050919050565b610f48816111dc565b82525050565b610f578161120a565b82525050565b610f6681611214565b82525050565b610f7581611224565b82525050565b6000610f8682610f1c565b9150819050919050565b6000602082019050610fa56000830184610ea7565b92915050565b6000604082019050610fc06000830185610ea7565b610fcd6020830184610ea7565b9392505050565b6000604082019050610fe96000830185610eb6565b8181036020830152610ffb8184610ed4565b90509392505050565b600060a0820190506110196000830188610ec5565b6110266020830187610f6c565b6110336040830186610f3f565b6110406060830185610f5d565b61104d6080830184610f5d565b9695505050505050565b600060208201905061106c6000830184610f0d565b92915050565b60006020820190506110876000830184610f4e565b92915050565b60006060820190506110a26000830186610f4e565b6110af6020830185610f4e565b6110bc6040830184610f4e565b949350505050565b60006110ce6110df565b90506110da828261128c565b919050565b6000604051905090565b600067ffffffffffffffff821115611104576111036113aa565b5b602082029050602081019050919050565b600067ffffffffffffffff8211156111305761112f6113aa565b5b611139826113f2565b9050602081019050919050565b600081519050919050565b600082825260208201905092915050565b600081905092915050565b60006111788261120a565b91506111838361120a565b925082821015611196576111956112ee565b5b828203905092915050565b60006111ac826111ea565b9050919050565b60008115159050919050565b6000819050919050565b60008190506111d782611406565b919050565b600061ffff82169050919050565b600073ffffffffffffffffffffffffffffffffffffffff82169050919050565b6000819050919050565b600063ffffffff82169050919050565b600067ffffffffffffffff82169050919050565b6000611243826111c9565b9050919050565b82818337600083830152505050565b60005b8381101561127757808201518184015260208101905061125c565b83811115611286576000848401525b50505050565b611295826113f2565b810181811067ffffffffffffffff821117156112b4576112b36113aa565b5b80604052505050565b60006112c88261120a565b91506112d38361120a565b9250826112e3576112e261131d565b5b828206905092915050565b7f4e487b7100000000000000000000000000000000000000000000000000000000600052601160045260246000fd5b7f4e487b7100000000000000000000000000000000000000000000000000000000600052601260045260246000fd5b7f4e487b7100000000000000000000000000000000000000000000000000000000600052602160045260246000fd5b7f4e487b7100000000000000000000000000000000000000000000000000000000600052603260045260246000fd5b7f4e487b7100000000000000000000000000000000000000000000000000000000600052604160045260246000fd5b600080fd5b600080fd5b600080fd5b600080fd5b600080fd5b6000601f19601f8301169050919050565b50565b600281106114175761141661134c565b5b50565b6114238161120a565b811461142e57600080fd5b5056fea2646970667358221220e3c4f8ed0c95f12d575a0bf9659831fd62a484aa7e39fb249f6b789ac48ebb8d64736f6c63430008070033",
  "linkReferences": {},
  "deployedLinkReferences": {}
}