{
  "_format": "hh-sol-artifact-1",
  "contractName": "Raffle",
  "sourceName": "contracts/Raffle.sol",
  "abi": [
    {
      "inputs": [
        {
          "internalType": "address",
          "name": "vrfCoordinatorV2",
          "type": "address"
        },
        {
          "internalType": "uint256",
          "name": "entranceFee",
          "type": "uint256"
        },
        {
          "internalType": "bytes32",
          "name": "gasLane",
          "type": "bytes32"
        },
        {
          "internalType": "uint64",
          "name": "subscriptionId",
          "type": "uint64"
        },
        {
          "internalType": "uint32",
          "name": "callbackGasLimit",
          "type": "uint32"
        },
        {
          "internalType": "uint256",
          "name": "interval",
          "type": "uint256"
        }
      ],
      "stateMutability": "nonpayable",
      "type": "constructor"
    },
    {
      "inputs": [
        {
          "internalType": "address",
          "name": "have",
          "type": "address"
        },
        {
          "internalType": "address",
          "name": "want",
          "type": "address"
        }
      ],
      "name": "OnlyCoordinatorCanFulfill",
      "type": "error"
    },
    {
      "inputs": [
        {
          "internalType": "uint256",
          "name": "correntBalance",
          "type": "uint256"
        },
        {
          "internalType": "uint256",
          "name": "numPlayers",
          "type": "uint256"
        },
        {
          "internalType": "uint256",
          "name": "raffleState",
          "type": "uint256"
        }
      ],
      "name": "Raffle_UpkeepNotNeeded",
      "type": "error"
    },
    {
      "inputs": [],
      "name": "Raffle__NotEnoughETHEntered",
      "type": "error"
    },
    {
      "inputs": [],
      "name": "Raffle__NotOpen",
      "type": "error"
    },
    {
      "inputs": [],
      "name": "transferFailed",
      "type": "error"
    },
    {
      "anonymous": false,
      "inputs": [
        {
          "indexed": true,
          "internalType": "address",
          "name": "player",
          "type": "address"
        }
      ],
      "name": "RaffleEnter",
      "type": "event"
    },
    {
      "anonymous": false,
      "inputs": [
        {
          "indexed": true,
          "internalType": "uint256",
          "name": "requestId",
          "type": "uint256"
        }
      ],
      "name": "RequestedRaffleWinner",
      "type": "event"
    },
    {
      "anonymous": false,
      "inputs": [
        {
          "indexed": true,
          "internalType": "address",
          "name": "winner",
          "type": "address"
        }
      ],
      "name": "WinnerPicked",
      "type": "event"
    },
    {
      "inputs": [
        {
          "internalType": "bytes",
          "name": "",
          "type": "bytes"
        }
      ],
      "name": "checkUpkeep",
      "outputs": [
        {
          "internalType": "bool",
          "name": "upkeepNeeded",
          "type": "bool"
        },
        {
          "internalType": "bytes",
          "name": "",
          "type": "bytes"
        }
      ],
      "stateMutability": "view",
      "type": "function"
    },
    {
      "inputs": [],
      "name": "enterRaffle",
      "outputs": [],
      "stateMutability": "payable",
      "type": "function"
    },
    {
      "inputs": [],
      "name": "getEntranceFee",
      "outputs": [
        {
          "internalType": "uint256",
          "name": "",
          "type": "uint256"
        }
      ],
      "stateMutability": "view",
      "type": "function"
    },
    {
      "inputs": [],
      "name": "getInterval",
      "outputs": [
        {
          "internalType": "uint256",
          "name": "",
          "type": "uint256"
        }
      ],
      "stateMutability": "view",
      "type": "function"
    },
    {
      "inputs": [],
      "name": "getLastTimeStamp",
      "outputs": [
        {
          "internalType": "uint256",
          "name": "",
          "type": "uint256"
        }
      ],
      "stateMutability": "view",
      "type": "function"
    },
    {
      "inputs": [],
      "name": "getNumWords",
      "outputs": [
        {
          "internalType": "uint256",
          "name": "",
          "type": "uint256"
        }
      ],
      "stateMutability": "pure",
      "type": "function"
    },
    {
      "inputs": [],
      "name": "getNumberOfPlayers",
      "outputs": [
        {
          "internalType": "uint256",
          "name": "",
          "type": "uint256"
        }
      ],
      "stateMutability": "view",
      "type": "function"
    },
    {
      "inputs": [
        {
          "internalType": "uint256",
          "name": "index",
          "type": "uint256"
        }
      ],
      "name": "getPlayer",
      "outputs": [
        {
          "internalType": "address",
          "name": "",
          "type": "address"
        }
      ],
      "stateMutability": "view",
      "type": "function"
    },
    {
      "inputs": [
        {
          "internalType": "uint256",
          "name": "index",
          "type": "uint256"
        }
      ],
      "name": "getPlayers",
      "outputs": [
        {
          "internalType": "address",
          "name": "",
          "type": "address"
        }
      ],
      "stateMutability": "view",
      "type": "function"
    },
    {
      "inputs": [],
      "name": "getRaffleState",
      "outputs": [
        {
          "internalType": "enum Raffle.RaffleStates",
          "name": "",
          "type": "uint8"
        }
      ],
      "stateMutability": "view",
      "type": "function"
    },
    {
      "inputs": [],
      "name": "getRecentWinner",
      "outputs": [
        {
          "internalType": "address",
          "name": "",
          "type": "address"
        }
      ],
      "stateMutability": "view",
      "type": "function"
    },
    {
      "inputs": [],
      "name": "getRequestConfirmations",
      "outputs": [
        {
          "internalType": "uint256",
          "name": "",
          "type": "uint256"
        }
      ],
      "stateMutability": "pure",
      "type": "function"
    },
    {
      "inputs": [
        {
          "internalType": "bytes",
          "name": "",
          "type": "bytes"
        }
      ],
      "name": "performUpkeep",
      "outputs": [],
      "stateMutability": "nonpayable",
      "type": "function"
    },
    {
      "inputs": [
        {
          "internalType": "uint256",
          "name": "requestId",
          "type": "uint256"
        },
        {
          "internalType": "uint256[]",
          "name": "randomWords",
          "type": "uint256[]"
        }
      ],
      "name": "rawFulfillRandomWords",
      "outputs": [],
      "stateMutability": "nonpayable",
      "type": "function"
    },
    {
      "inputs": [],
      "name": "recentWinner",
      "outputs": [
        {
          "internalType": "address",
          "name": "",
          "type": "address"
        }
      ],
      "stateMutability": "view",
      "type": "function"
    }
  ],
  "bytecode": "0x6101606040523480156200001257600080fd5b5060405162001890380380620018908339818101604052810190620000389190620001ad565b858073ffffffffffffffffffffffffffffffffffffffff1660808173ffffffffffffffffffffffffffffffffffffffff1660601b81525050508460a081815250508573ffffffffffffffffffffffffffffffffffffffff1660c08173ffffffffffffffffffffffffffffffffffffffff1660601b815250508360e081815250508267ffffffffffffffff166101008167ffffffffffffffff1660c01b815250508163ffffffff166101208163ffffffff1660e01b815250506000600260146101000a81548160ff02191690836001811115620001195762000118620002b5565b5b0217905550426001819055508061014081815250505050505050506200036b565b6000815190506200014b81620002e9565b92915050565b600081519050620001628162000303565b92915050565b60008151905062000179816200031d565b92915050565b600081519050620001908162000337565b92915050565b600081519050620001a78162000351565b92915050565b60008060008060008060c08789031215620001cd57620001cc620002e4565b5b6000620001dd89828a016200013a565b9650506020620001f089828a0162000168565b95505060406200020389828a0162000151565b94505060606200021689828a0162000196565b93505060806200022989828a016200017f565b92505060a06200023c89828a0162000168565b9150509295509295509295565b6000620002568262000267565b9050919050565b6000819050919050565b600073ffffffffffffffffffffffffffffffffffffffff82169050919050565b6000819050919050565b600063ffffffff82169050919050565b600067ffffffffffffffff82169050919050565b7f4e487b7100000000000000000000000000000000000000000000000000000000600052602160045260246000fd5b600080fd5b620002f48162000249565b81146200030057600080fd5b50565b6200030e816200025d565b81146200031a57600080fd5b50565b620003288162000287565b81146200033457600080fd5b50565b620003428162000291565b81146200034e57600080fd5b50565b6200035c81620002a1565b81146200036857600080fd5b50565b60805160601c60a05160c05160601c60e0516101005160c01c6101205160e01c610140516114a9620003e7600039600081816108eb01526109590152600061072a01526000610707015260006106e6015260006106aa01526000818161038801526104850152600081816103c5015261041901526114a96000f3fe6080604052600436106100e85760003560e01c80634f8c70cf1161008a57806391ad27b41161005957806391ad27b4146102c6578063c1c244e8146102f1578063e55ae4e81461031c578063fd6673f514610359576100e8565b80634f8c70cf1461020757806353a2c19a146102325780635f1b0fd81461025d5780636e04ff0d14610288576100e8565b80632cfcc539116100c65780632cfcc5391461016c5780634585e33b14610176578063460e20491461019f578063473f1ddc146101dc576100e8565b806309bc33a7146100ed578063115cbaf5146101185780631fe543e314610143575b600080fd5b3480156100f957600080fd5b50610102610384565b60405161010f91906110b4565b60405180910390f35b34801561012457600080fd5b5061012d6103ac565b60405161013a9190611099565b60405180910390f35b34801561014f57600080fd5b5061016a60048036038101906101659190610e8d565b6103c3565b005b610174610483565b005b34801561018257600080fd5b5061019d60048036038101906101989190610dea565b6105f2565b005b3480156101ab57600080fd5b506101c660048036038101906101c19190610e33565b6107f1565b6040516101d39190610fd2565b60405180910390f35b3480156101e857600080fd5b506101f1610838565b6040516101fe9190610fd2565b60405180910390f35b34801561021357600080fd5b5061021c610862565b6040516102299190610fd2565b60405180910390f35b34801561023e57600080fd5b5061024761088c565b60405161025491906110b4565b60405180910390f35b34801561026957600080fd5b5061027261089b565b60405161027f91906110b4565b60405180910390f35b34801561029457600080fd5b506102af60048036038101906102aa9190610dea565b6108a8565b6040516102bd929190611016565b60405180910390f35b3480156102d257600080fd5b506102db610955565b6040516102e891906110b4565b60405180910390f35b3480156102fd57600080fd5b5061030661097d565b60405161031391906110b4565b60405180910390f35b34801561032857600080fd5b50610343600480360381019061033e9190610e33565b610987565b6040516103509190610fd2565b60405180910390f35b34801561036557600080fd5b5061036e6109ce565b60405161037b91906110b4565b60405180910390f35b60007f0000000000000000000000000000000000000000000000000000000000000000905090565b6000600260149054906101000a900460ff16905090565b7f000000000000000000000000000000000000000000000000000000000000000073ffffffffffffffffffffffffffffffffffffffff163373ffffffffffffffffffffffffffffffffffffffff161461047557337f00000000000000000000000000000000000000000000000000000000000000006040517f1cf993f400000000000000000000000000000000000000000000000000000000815260040161046c929190610fed565b60405180910390fd5b61047f82826109da565b5050565b7f00000000000000000000000000000000000000000000000000000000000000003410156104dd576040517fbd4e069500000000000000000000000000000000000000000000000000000000815260040160405180910390fd5b600060018111156104f1576104f061138e565b5b600260149054906101000a900460ff1660018111156105135761051261138e565b5b1461054a576040517f1425571c00000000000000000000000000000000000000000000000000000000815260040160405180910390fd5b6000339080600181540180825580915050600190039060005260206000200160009091909190916101000a81548173ffffffffffffffffffffffffffffffffffffffff021916908373ffffffffffffffffffffffffffffffffffffffff1602179055503373ffffffffffffffffffffffffffffffffffffffff167f0805e1d667bddb8a95f0f09880cf94f403fb596ce79928d9f29b74203ba284d460405160405180910390a2565b600061060c604051806020016040528060008152506108a8565b5090508061067b5747600080549050600260149054906101000a900460ff16600181111561063d5761063c61138e565b5b6040517fe059521b000000000000000000000000000000000000000000000000000000008152600401610672939291906110cf565b60405180910390fd5b6001600260146101000a81548160ff021916908360018111156106a1576106a061138e565b5b021790555060007f000000000000000000000000000000000000000000000000000000000000000073ffffffffffffffffffffffffffffffffffffffff16635d3b1d307f00000000000000000000000000000000000000000000000000000000000000007f000000000000000000000000000000000000000000000000000000000000000060037f000000000000000000000000000000000000000000000000000000000000000060016040518663ffffffff1660e01b815260040161076b959493929190611046565b602060405180830381600087803b15801561078557600080fd5b505af1158015610799573d6000803e3d6000fd5b505050506040513d601f19601f820116820180604052508101906107bd9190610e60565b9050807fcd6e45c8998311cab7e9d4385596cac867e20a0587194b954fa3a731c93ce78b60405160405180910390a2505050565b6000808281548110610806576108056113bd565b5b9060005260206000200160009054906101000a900473ffffffffffffffffffffffffffffffffffffffff169050919050565b6000600260009054906101000a900473ffffffffffffffffffffffffffffffffffffffff16905090565b6000600260009054906101000a900473ffffffffffffffffffffffffffffffffffffffff16905090565b6000600163ffffffff16905090565b6000600361ffff16905090565b600060606000600260149054906101000a900460ff1660018111156108d0576108cf61138e565b5b600060018111156108e4576108e361138e565b5b14905060007f00000000000000000000000000000000000000000000000000000000000000006001544261091891906111af565b119050600080600080549050119050600080471190508380156109385750825b80156109415750815b801561094a5750805b955050505050915091565b60007f0000000000000000000000000000000000000000000000000000000000000000905090565b6000600154905090565b600080828154811061099c5761099b6113bd565b5b9060005260206000200160009054906101000a900473ffffffffffffffffffffffffffffffffffffffff169050919050565b60008080549050905090565b60008080549050826000815181106109f5576109f46113bd565b5b6020026020010151610a0791906112ff565b90506000808281548110610a1e57610a1d6113bd565b5b9060005260206000200160009054906101000a900473ffffffffffffffffffffffffffffffffffffffff16905080600260006101000a81548173ffffffffffffffffffffffffffffffffffffffff021916908373ffffffffffffffffffffffffffffffffffffffff1602179055506000600260146101000a81548160ff02191690836001811115610ab257610ab161138e565b5b0217905550600067ffffffffffffffff811115610ad257610ad16113ec565b5b604051908082528060200260200182016040528015610b005781602001602082028036833780820191505090505b5060009080519060200190610b16929190610c0b565b504260018190555060008173ffffffffffffffffffffffffffffffffffffffff1647604051610b4490610fbd565b60006040518083038185875af1925050503d8060008114610b81576040519150601f19603f3d011682016040523d82523d6000602084013e610b86565b606091505b5050905080610bc1576040517fe465903e00000000000000000000000000000000000000000000000000000000815260040160405180910390fd5b8173ffffffffffffffffffffffffffffffffffffffff167f5b690ec4a06fe979403046eaeea5b3ce38524683c3001f662c8b5a829632f7df60405160405180910390a25050505050565b828054828255906000526020600020908101928215610c84579160200282015b82811115610c835782518260006101000a81548173ffffffffffffffffffffffffffffffffffffffff021916908373ffffffffffffffffffffffffffffffffffffffff16021790555091602001919060010190610c2b565b5b509050610c919190610c95565b5090565b5b80821115610cae576000816000905550600101610c96565b5090565b6000610cc5610cc08461112b565b611106565b90508083825260208201905082856020860282011115610ce857610ce7611420565b5b60005b85811015610d185781610cfe8882610dc0565b845260208401935060208301925050600181019050610ceb565b5050509392505050565b6000610d35610d3084611157565b611106565b905082815260208101848484011115610d5157610d50611425565b5b610d5c84828561128c565b509392505050565b600082601f830112610d7957610d7861141b565b5b8135610d89848260208601610cb2565b91505092915050565b600082601f830112610da757610da661141b565b5b8135610db7848260208601610d22565b91505092915050565b600081359050610dcf8161145c565b92915050565b600081519050610de48161145c565b92915050565b600060208284031215610e0057610dff61142f565b5b600082013567ffffffffffffffff811115610e1e57610e1d61142a565b5b610e2a84828501610d92565b91505092915050565b600060208284031215610e4957610e4861142f565b5b6000610e5784828501610dc0565b91505092915050565b600060208284031215610e7657610e7561142f565b5b6000610e8484828501610dd5565b91505092915050565b60008060408385031215610ea457610ea361142f565b5b6000610eb285828601610dc0565b925050602083013567ffffffffffffffff811115610ed357610ed261142a565b5b610edf85828601610d64565b9150509250929050565b610ef2816111e3565b82525050565b610f01816111f5565b82525050565b610f1081611201565b82525050565b6000610f2182611188565b610f2b8185611193565b9350610f3b81856020860161129b565b610f4481611434565b840191505092915050565b610f588161127a565b82525050565b6000610f6b6000836111a4565b9150610f7682611445565b600082019050919050565b610f8a8161121e565b82525050565b610f998161124c565b82525050565b610fa881611256565b82525050565b610fb781611266565b82525050565b6000610fc882610f5e565b9150819050919050565b6000602082019050610fe76000830184610ee9565b92915050565b60006040820190506110026000830185610ee9565b61100f6020830184610ee9565b9392505050565b600060408201905061102b6000830185610ef8565b818103602083015261103d8184610f16565b90509392505050565b600060a08201905061105b6000830188610f07565b6110686020830187610fae565b6110756040830186610f81565b6110826060830185610f9f565b61108f6080830184610f9f565b9695505050505050565b60006020820190506110ae6000830184610f4f565b92915050565b60006020820190506110c96000830184610f90565b92915050565b60006060820190506110e46000830186610f90565b6110f16020830185610f90565b6110fe6040830184610f90565b949350505050565b6000611110611121565b905061111c82826112ce565b919050565b6000604051905090565b600067ffffffffffffffff821115611146576111456113ec565b5b602082029050602081019050919050565b600067ffffffffffffffff821115611172576111716113ec565b5b61117b82611434565b9050602081019050919050565b600081519050919050565b600082825260208201905092915050565b600081905092915050565b60006111ba8261124c565b91506111c58361124c565b9250828210156111d8576111d7611330565b5b828203905092915050565b60006111ee8261122c565b9050919050565b60008115159050919050565b6000819050919050565b600081905061121982611448565b919050565b600061ffff82169050919050565b600073ffffffffffffffffffffffffffffffffffffffff82169050919050565b6000819050919050565b600063ffffffff82169050919050565b600067ffffffffffffffff82169050919050565b60006112858261120b565b9050919050565b82818337600083830152505050565b60005b838110156112b957808201518184015260208101905061129e565b838111156112c8576000848401525b50505050565b6112d782611434565b810181811067ffffffffffffffff821117156112f6576112f56113ec565b5b80604052505050565b600061130a8261124c565b91506113158361124c565b9250826113255761132461135f565b5b828206905092915050565b7f4e487b7100000000000000000000000000000000000000000000000000000000600052601160045260246000fd5b7f4e487b7100000000000000000000000000000000000000000000000000000000600052601260045260246000fd5b7f4e487b7100000000000000000000000000000000000000000000000000000000600052602160045260246000fd5b7f4e487b7100000000000000000000000000000000000000000000000000000000600052603260045260246000fd5b7f4e487b7100000000000000000000000000000000000000000000000000000000600052604160045260246000fd5b600080fd5b600080fd5b600080fd5b600080fd5b600080fd5b6000601f19601f8301169050919050565b50565b600281106114595761145861138e565b5b50565b6114658161124c565b811461147057600080fd5b5056fea26469706673582212201ef9f2dd3e8c43b38b0b9b1581b73c94aebf0f4104366546dbc5eaf15849c18064736f6c63430008070033",
  "linkReferences": {},
  "deployedLinkReferences": {}
}